:020000040000fa
:080000000002040000000000f2
:020000040000fa
:040008008c03000065
:020000040000fa
:04000c008c03000061
:020000040000fa
:040010008c0300005d
:020000040000fa
:040014008c03000059
:020000040000fa
:040018008c03000055
:020000040000fa
:04001c008c03000051
:020000040000fa
:040020008c0300004d
:020000040000fa
:040024008c03000049
:020000040000fa
:040028008c03000045
:020000040000fa
:04002c008c03000041
:020000040000fa
:040030008c0300003d
:020000040000fa
:040034008c03000039
:020000040000fa
:04003800dc020000e6
:020000040000fa
:04003c008c03000031
:020000040000fa
:040040008c0300002d
:020000040000fa
:040044008c03000029
:020000040000fa
:04004800f0020000c2
:020000040000fa
:04004c008c03000021
:020000040000fa
:040050008c0300001d
:020000040000fa
:040054008c03000019
:020000040000fa
:040058008c03000015
:020000040000fa
:04005c008c03000011
:020000040000fa
:040060008c0300000d
:020000040000fa
:040064008c03000009
:020000040000fa
:040068008c03000005
:020000040000fa
:04006c008c03000001
:020000040000fa
:040070008c030000fd
:020000040000fa
:040074008c030000f9
:020000040000fa
:040078008c030000f5
:020000040000fa
:04007c008c030000f1
:020000040000fa
:040080008c030000ed
:020000040000fa
:040084008c030000e9
:020000040000fa
:040088008c030000e5
:020000040000fa
:04008c008c030000e1
:020000040000fa
:040090008c030000dd
:020000040000fa
:040094008c030000d9
:020000040000fa
:040098008c030000d5
:020000040000fa
:04009c008c030000d1
:020000040000fa
:0400a0008c030000cd
:020000040000fa
:0400a4008c030000c9
:020000040000fa
:0400a8008c030000c5
:020000040000fa
:0400ac008c030000c1
:020000040000fa
:0400b0008c030000bd
:020000040000fa
:0400b4008c030000b9
:020000040000fa
:0400b8008c030000b5
:020000040000fa
:0400bc008c030000b1
:020000040000fa
:0400c0008c030000ad
:020000040000fa
:0400c4008c030000a9
:020000040000fa
:0400c8008c030000a5
:020000040000fa
:0400cc008c030000a1
:020000040000fa
:0400d0008c0300009d
:020000040000fa
:0400d4008c03000099
:020000040000fa
:0400d8008c03000095
:020000040000fa
:0400dc008c03000091
:020000040000fa
:0400e0008c0300008d
:020000040000fa
:0400e4008c03000089
:020000040000fa
:0400e8008c03000085
:020000040000fa
:0400ec008c03000081
:020000040000fa
:0400f0008c0300007d
:020000040000fa
:0400f4008c03000079
:020000040000fa
:0400f8008c03000075
:020000040000fa
:0400fc008c03000071
:020000040000fa
:040100008c0300006c
:020000040000fa
:040104008c03000068
:020000040000fa
:040108008c03000064
:020000040000fa
:04010c008c03000060
:020000040000fa
:040110008c0300005c
:020000040000fa
:040114008c03000058
:020000040000fa
:040118008c03000054
:020000040000fa
:04011c008c03000050
:020000040000fa
:040120008c0300004c
:020000040000fa
:040124008c03000048
:020000040000fa
:040128008c03000044
:020000040000fa
:04012c008c03000040
:020000040000fa
:040130008c0300003c
:020000040000fa
:040134008c03000038
:020000040000fa
:040138008c03000034
:020000040000fa
:04013c008c03000030
:020000040000fa
:040140008c0300002c
:020000040000fa
:040144008c03000028
:020000040000fa
:040208008c03000063
:020000040000fa
:04020c008c0300005f
:020000040000fa
:040210008c0300005b
:020000040000fa
:040214008c03000057
:020000040000fa
:040218008c03000053
:020000040000fa
:04021c008c0300004f
:020000040000fa
:040220008c0300004b
:020000040000fa
:040224008c03000047
:020000040000fa
:040228008c03000043
:020000040000fa
:04022c008c0300003f
:020000040000fa
:040230008c0300003b
:020000040000fa
:040234008c03000037
:020000040000fa
:040238008c03000033
:020000040000fa
:04023c008c0300002f
:020000040000fa
:040240008c0300002b
:020000040000fa
:040244008c03000027
:020000040000fa
:040248008c03000023
:020000040000fa
:04024c008c0300001f
:020000040000fa
:040250008c0300001b
:020000040000fa
:040254008c03000017
:020000040000fa
:040258008c03000013
:020000040000fa
:04025c008c0300000f
:020000040000fa
:040260008c0300000b
:020000040000fa
:040264008c03000007
:020000040000fa
:040268008c03000003
:020000040000fa
:04026c008c030000ff
:020000040000fa
:040270008c030000fb
:020000040000fa
:040274008c030000f7
:020000040000fa
:040278008c030000f3
:020000040000fa
:04027c008c030000ef
:020000040000fa
:040280008c030000eb
:020000040000fa
:040284008c030000e7
:020000040000fa
:040288008c030000e3
:020000040000fa
:04028c008c030000df
:020000040000fa
:040290008c030000db
:020000040000fa
:040294008c030000d7
:020000040000fa
:040298008c030000d3
:020000040000fa
:04029c008c030000cf
:020000040000fa
:0402a0008c030000cb
:020000040000fa
:0402a4008c030000c7
:020000040000fa
:0402a8008c030000c3
:020000040000fa
:0402ac008c030000bf
:020000040000fa
:0402b0008c030000bb
:020000040000fa
:0402b4008c030000b7
:020000040000fa
:0402b8008c030000b3
:020000040000fa
:0402bc008c030000af
:020000040000fa
:0402c0008c030000ab
:020000040000fa
:0402c4008c030000a7
:020000040000fa
:0402c8008c030000a3
:020000040000fa
:0402cc008c0300009f
:020000040000fa
:0402d0008c0300009b
:020000040000fa
:0402d4008c03000097
:020000040000fa
:0402d8008c03000093
:020000040000fa
:0402dc008c0300008f
:020000040000fa
:0402e0008c0300008b
:020000040000fa
:0402e4008c03000087
:020000040000fa
:0402e8008c03000083
:020000040000fa
:0402ec008c0300007f
:020000040000fa
:0402f0008c0300007b
:020000040000fa
:0402f4008c03000077
:020000040000fa
:0402f8008c03000073
:020000040000fa
:0402fc008c0300006f
:020000040000fa
:040300008c0300006a
:020000040000fa
:040304008c03000066
:020000040000fa
:040308008c03000062
:020000040000fa
:04030c008c0300005e
:020000040000fa
:040310008c0300005a
:020000040000fa
:040314008c03000056
:020000040000fa
:040318008c03000052
:020000040000fa
:04031c008c0300004e
:020000040000fa
:040320008c0300004a
:020000040000fa
:040324008c03000046
:020000040000fa
:040328008c03000042
:020000040000fa
:04032c008c0300003e
:020000040000fa
:040330008c0300003a
:020000040000fa
:040334008c03000036
:020000040000fa
:040338008c03000032
:020000040000fa
:04033c008c0300002e
:020000040000fa
:040340008c0300002a
:020000040000fa
:040344008c03000026
:020000040000fa
:100400002f942000cefe27000e018800000000007f
:10041000000020000000e000020032000001200087
:100420002002880014000700fa0007000000e00026
:1004300003003a00e0ee2100010020000200370036
:100440000000200001002000810f70000100320038
:1004500014000700000020000000e000020032004d
:1004600000000200000000006c21020000000000fb
:100470000040da000000fe004440a9000002200015
:100480000000e0000300320000002000a00188000e
:100490004440a800000006008a1f78008b1f7800e7
:1004a0000000060091018800800478000000eb0045
:1004b0001a003700e284440032a0b4009905ba0063
:1004c000e284440032a0b4009906ba00e2844400f9
:1004d00032a0b4000006eb00476fde00fd07b2005b
:1004e000636ce10003003a00ebff07000000eb0043
:1004f0000a003700606ce10004003a00005deb0088
:100500008b05e900fdff3e00040037006168e10053
:10051000010032000086eb000b00070019c7ba008b
:100520001905ba000e04e00003003a000a00e000da
:10053000e0ff3a0000000600fe07b2009e018800be
:100540008a047800f5ff3700395dba008b05e900b1
:100550000c003200295dba008b05e900080032006a
:100560000c00e00003003a00e284440032a0b40032
:10057000f5ff370019ddba008b05e900faff3a00f4
:100580008904e800e184440032a0b40000000600c1
:10059000e415040000000000c22104000000000077
:1005a0001a04040000000000be0d0400000000005a
:1005b00000000400000000003400f800881f7800ec
:1005c00008002000a80188004f0478000000fa000d
:1005d0008480a9000080fa003400f9000040060081
:1005e0003600f800809fbe00829fbe00849fbe0040
:1005f000869fbe003400f80000002000a0018800a3
:100600000200fa000040eb00004f7800360037008f
:100610001e80fb006a00b90080007800008920007d
:1006200000804000100078000000e0002d00320043
:100630001e81fb006a10b90000007800e60040004f
:1006400000892000008040001000be0061004000d2
:10065000e08048006a11b9008201780062892000b8
:10066000028141000089be001e80fb006a00b900c3
:1006700000007800e6004000008920000080400073
:100680001001be001e80fb006a00b9000000780067
:100690008080e80000892000008040001000be003b
:1006a000800f5100818f59000e003a001e80fb0020
:1006b0006a00b900800078000089200000804000b6
:1006c00010007800000001001e80fb006a00b900e5
:1006d0008000780060892000008140006000b80040
:1006e0000089be001e4fe8001e407800e94f500010
:1006f000c7ff36008500a9000080fa003400f90029
:100700004f03be004f02be004f01be004f00be00af
:100710003600f900004006000040da000000fe004c
:100720000a00fa0011002000b1bf9f00c0bf9f0067
:100730006a805700000607004fb897000080fa0053
:10074000000006000a00fa0051002000b1bf9f001f
:10075000c0bf9f006a805700f90507005fb8970087
:100760000080fa0000000600889fbe008004780028
:10077000004a80000000e00004003a000e0007007c
:100780000084eb000000e00008003500084a80000b
:100790000900e000050032000900440006000700df
:1007a0000000e00001003d000084eb00080078003c
:1007b0004f04be0000000600800078000100e00049
:1007c00003003a0000002000004a880000000500f5
:1007d0000080eb0002002000828f500002003e00eb
:1007e000014a88000000eb00000006000600fa0045
:1007f000000f780011079800220798001e00900053
:10080000ae009000f70a07002e0090000080fa006a
:10081000000006000000050080017800020037009b
:10082000815978000201e9000200e000fcff3a0073
:1008300000000600889fbe000004780001007800d8
:1008400082047800880178000901780011002000f6
:10085000d2010700890f5000010032000004eb00b4
:10086000080078004f04be00000006000000fa00f7
:10087000e88157004fb9970001832000a041200074
:10088000020007000080fa00000006006200fa0083
:10089000889fbe008a1f78000005780081047800d8
:1008a000020478008300780080f92f000f004000d8
:1008b0005d0407009a979f00a9979f000000eb0036
:1008c000b09f9f001885fb008a04fb000a05ea0020
:1008d0004f55de0050022000808f54000d00320082
:1008e000e10f55000b003a000a01780088007800fb
:1008f0002f9097009f91970003000100a0979f0001
:100900000000e0008e0032003f9897000000e800f1
:10091000b09f9f000a04440050022000808f5400c2
:10092000040032000900e000e6ff3a003f9897001b
:10093000840037000000eb00909f9f00809f9f0085
:10094000f0979f00e0979f00d0979f00c0979f006f
:1009500007003700a1922000010050000000400075
:10096000e191200061007800df989700010070009d
:10097000d09f9f00880478000904780038457800eb
:100980008a00fb00a0922000e90107000000e000bf
:10099000f0ff3a00a1c2b300814f55000e003a00ab
:1009a000cf8897000180e900c08f9f001000780079
:1009b000c09f9f000000e00005003d000000ea002d
:1009c000c09f9f005f9897000020a000d09f9f00cd
:1009d0000904e8000f003700c09f9f000000eb00f3
:1009e00005003700f2ff2700820f5000020032009e
:1009f0006a01b90002804000090478008804780088
:100a0000b900fb000103b100e98f5000f5ff36008b
:100a1000c09f9f00e0c2b300984f10000200320058
:100a20000080eb0019003700a0c2b300d84f1000bf
:100a300007003a00cf8897000180e900c08f9f002f
:100a400010007800a09f9f000804e8001000370005
:100a50000000eb00a09f9f00880078000500370091
:100a6000f3ff2700830f5000020032006a02b90032
:100a70000400410001047800880078003101fb0087
:100a80000203b100e90f5100f5ff3600a09f9f005f
:100a9000984478008900fb0060912000a4010700c1
:100aa0000000e000020032000804e8000100370006
:100ab0008044eb00c97f9f0080c6b30080cf540004
:100ac00004003a0098cf14000a003a006640500033
:100ad00006003700c0c6b30080cf540005003a00be
:100ae00098cf140003003a0065404000c07f9f008b
:100af0000804e8001801fb00e3fb2f008f81410090
:100b000081f92f008f804000a0f92f000f004000d6
:100b1000100007000000e00009003a00e1fb2f0090
:100b20008f804000a0f92f000f0040000203070053
:100b30000000e000020035000804e80061ff370013
:100b40000080eb004f0578004f04be000080fa00e3
:100b500000000600889fbe008a9fbe00e4c6b30066
:100b6000844f5100be00320010003c006b42520026
:100b7000844f51001800320005003c0054c2b300fd
:100b8000844f5100f600320084c5b3000f003700d7
:100b900044c6b300844f5100140032006542420045
:100ba000844f5100f1003a001000370004c7b30031
:100bb000844f5100dd00320056003500654242008e
:100bc000844f51005300320063424200844f510071
:100bd000e6003a004f0037001181e90082087800f2
:100be000f000900012417800de0037002062900093
:100bf000c5c6b300854f520007003a009102780045
:100c000064825200840878001402be004fabde00fc
:100c1000860378001400370015c7b300854f5200d3
:100c200003003a0011047800680254000500370000
:100c3000a5c6b300854f520006003a009104780023
:100c400068825400840878005403be004402be0049
:100c5000050037001182e90084087800140278004a
:100c6000cfa2de00612bb9000498be000690be0042
:100c7000a060900088c6b30088cf50000d003200fd
:100c800028c6b30088cf500004003a000402fb00dd
:100c9000cfa2de00612bb9000800370048c7b300bf
:100ca00088cf5000030032006644440088cf5000d3
:100cb00004003a00cfa2de00612bb9000498be0008
:100cc0000690be003002be002003be00f00090007f
:100cd000e00f5200e08f5a00e00f5b00e08f5b00f6
:100ce00002003d00d4c2b30008003700001290009b
:100cf0000418a30002003200b4c2b300030037009e
:100d00000408a3005100320004c2b30084f178004b
:100d10004c00370020629000c5c6b300854f5200da
:100d200008003a0011057800640255008408780034
:100d30001404be006055b8000802be000a03be00dd
:100d40001400370015c7b300854f520003003a0066
:100d5000910478006882540005003700a5c6b300ee
:100d6000854f520006003a001105780068025500d0
:100d7000840878005403be004402be00050037001a
:100d80001182e90084087800140278008002eb00e8
:100d90006033b8000498be000690be00a0609000ca
:100da00088c6b30088cf50000d00320028c6b300bb
:100db00088cf500004003a000482fb008002eb0060
:100dc0006033b8000800370048c7b30088cf500030
:100dd000030032006644440088cf500004003a000b
:100de0008002eb006033b8000498be000690be009d
:100df000801090000138a300140032003002be00c1
:100e00002003be00e00f5200e08f5a00e00f5b00ad
:100e1000e08f5b000d00320081c7b300814f5100ad
:100e20000300320081c5b300814f510007003a0032
:100e3000f000900004c3b30084f178008100e80062
:100e400082f178008100e80071009800f0009000c5
:100e50008181410063009800824078003e003700a5
:100e6000a0619000c4c6b3001181e90084cf510095
:100e7000220032000a003c006442520084cf51003c
:100e80002500320004c2e80084cf51001300320074
:100e90006842520084cf51001e003a000a00370019
:100ea00044c7b30084cf51001b00320066424200a9
:100eb00084cf5100180032006942520084cf5100a3
:100ec00014003a000500370082087800920078008c
:100ed00040589000804878002c0037008208780045
:100ee00092007800600a9000cfa2de00612bb9006a
:100ef0008498be008690be002400370082087800e7
:100f00009200780060099000cf91de008288be00d8
:100f10001e0037001181e9008208780092007800f5
:100f20006008900080087800180037001181e900ff
:100f30008208780012027800cfa2de00612bb9008f
:100f40000498be000690be00f00090008181410030
:100f50006300980081c7b300c80007000b0037008a
:100f6000f000900082f1780006003700f000900059
:100f7000818141000204e00001003a0052c2b30046
:100f8000824978008100e800710098000000eb00c1
:100f90004f05be004f04be0000000600889fbe0043
:100fa0008a9fbe008c9fbe008e1f780000067800ce
:100fb0000104780002007800830478000881b900f9
:100fc000020778000200e000420032000800e00062
:100fd0004100320082057800c9009000690090004d
:100fe000808f500004003900090078005c00070081
:100ff0000000e000290035000040200019006000da
:101000000a0032000b017800a10020000c007800db
:1010100036000700800678000d00e0000600320070
:10102000610516000a854600040037000b057800ac
:101030008006eb00010037000b05780049009000a6
:10104000e9009000808050008a8f5000020031003b
:10105000010578008006eb000a0178008c0078001a
:101060002c0007008a855500490090000a004000c6
:10107000c00498000d00e000040032000900780070
:10108000ce0207000000e00004003a000b00e00080
:10109000020032000a064600cfff37000080200021
:1010a000190060000200320009007800c302070046
:1010b00000c02000190060000200320049009000ca
:1010c000e00498008b055700110009008885d800be
:1010d000010037000000eb004f0778004f06be000c
:1010e0004f05be004f04be0000000600030037009d
:1010f000b0cf1000050032000201e9008001780045
:101100000200e000faff3a0000000500030078004a
:10111000000006008001780002003700b159780015
:101120000201e9000200e000fcff3a0000000600b6
:10113000020037000304e0000600320000017800de
:1011400002007800b041780081cf5100f9ff3a00e9
:10115000010037000001eb000200780000000600eb
:10116000889fbe008a1f780000047800c8009000a5
:10117000680190000000eb00828f50003c003900b5
:10118000180078002200290002016000e20f5100df
:1011900007003200012024000000e00001003d00b3
:1011a00001202000008c70000080eb003000370030
:1011b0000200260002006000820f500009003a0081
:1011c00038009000808f5000060039000800780039
:1011d0007a020700800078000080eb000100e00048
:1011e00023003a001805780000c0200000006500c8
:1011f00018003a00a8049000600220000800400097
:10120000808f540013003a000020200016030700ce
:10121000200498000000e00005003a00290498002e
:10122000490498008904e800390498000800370050
:101230000a60a0000a0c78004004980001202000f9
:101240008080400031049800400c9800500c9800b9
:10125000f901070028009000500498003800900021
:101260006004980000002600180c70000000eb00dd
:101270004f0578004f04be0000000600fc874700c1
:10128000889fbe008a9fbe008c9fbe008e1f780084
:101290000006780080c5b30080cf50000a003200fd
:1012a0007740400080cf50000a0032006940400083
:1012b00080cf50000b0032005090200080bf9f0074
:1012c000ae0020000a003700428f200082bf9f003e
:1012d000060037005390200083bf9f008e0020003f
:1012e000030037005490200084bf9f000e012000af
:1012f0003c02be002c03be000605be000404be0076
:1013000040c6b30080cf500003003200654040006b
:1013100080cf50000b003a00e00f5200e08f5a00df
:10132000e00f5b00e08f5b0006003d006000b8004e
:101330006011b80004045000858458000605590067
:1013400087855900e80f5700040032004000200054
:10135000f00f570038003a0001003700300020003d
:10136000e00f5400e08f5c00e00f5d00e08f5d0057
:1013700004003a00dc0890008d0120000100e0002c
:10138000060032008e00e900888060008fba970066
:10139000e5c07800f1ef9f007d012000800078001b
:1013a0008100e900050033008b05d1000a85d300d8
:1013b0008984d3000884d300f9ff3700089ebe005b
:1013c0000a96be00120037008d06e9008e00e90083
:1013d000848060000fb99700e2c1780082fd2f0081
:1013e0000f01410003f17e00800078008100e900d8
:1013f000050033008783d1000683d3008582d300a4
:101400000482d300f9ff3700049ebe000696be009a
:101410003c02be002c03be00e00f5200e08f5a00d9
:10142000e00f5b00e08f5b008b0034000d00e000fc
:10143000e5ff3c00880037002c60900081c6b300b7
:10144000814f50000b00320006003c000004e00019
:1014500008003200e6c05000814f50004e003a00b4
:1014600004003700c1c6b300814f50004a003a0063
:10147000210037000800e00004003a005c089000fa
:101480008d0120000000e00006003200110009007c
:101490000e84d8000fb99700e2c07800f1ef9f00ea
:1014a0007d012000110009000e84d8000a003700d9
:1014b000110009000e04d8008d06e9000e81b90064
:1014c000020454008fb8970061417c0081fd2f0019
:1014d0008f80400082f07e00000478000800e00069
:1014e000020032000d00e000f1ff3c00cfc4de003e
:1014f000614db90025003700e00f5400e08f5c001b
:1015000004003a005c0890008d0120000000e0001b
:10151000070032006171b9000800be00a90207008f
:101520008fb99700e3417800f3ef9f007d01200021
:101530006171b9000800be00920207000b0037007d
:101540006171b9000800be007f0207008d06e90046
:1015500000f1b900020454000fba9700e4427c0085
:1015600084fd2f000f02420005f27e000004be0041
:10157000e00f5000e08f5800020032000d00e00044
:10158000efff3c004fcdde008a057800089ebe00cc
:101590000a96be0030003700e00f5400e08f5c0078
:1015a000e00f5d00e08f5d0004003a005c089000f1
:1015b0008d0120000000e000090032006172b900d6
:1015c000612bb9000800be000a01be002603070017
:1015d0000fba970064427800f4ef9f007d0120006d
:1015e0006172b900612bb9000800be000a01be009b
:1015f000160307000d0037006172b900612bb900b6
:101600000800be000a01be001b0307008d06e900aa
:1016100000f2b900040454008fba970065427c00c0
:1016200085fd2f008f82420084f27e00009ebe0066
:101630000296be003c04be002c05be00e00f540024
:10164000e08f5c00e00f5d00e08f5d000200340081
:101650000d00e000e8ff3c00e80f570010003a00e2
:101660000c1090000038a3000d003200f78f5600d8
:1016700006003e0085fd2f008f824200e5c07e00ff
:1016800000c3b30080cf5000050032008d06e90092
:1016900002c3b30081fd2f008f80400082f07e00e6
:1016a00078811600120e98006c00900083fd2f00c8
:1016b0008f8141008d80410096fe07001c0890003c
:1016c000dc089000810f500006003d0000805000b3
:1016d000000e98000c1090000040a1000016980029
:1016e0000f0037000100e0000d003d008c1090005d
:1016f000f4806000f08f500009003a007c099000ef
:10170000fc009000810051000c0990008280500084
:10171000008050004240a90001003400000e9800f3
:101720004f0778004f06be004f05be004f04be00b5
:10173000cf01b100000006000400fa00889fbe003f
:101740008a9fbe008c1f7800000478000106780094
:10175000f80d9000780090008085550008089000f2
:101760008085550018089000808555002808900055
:101770008085550038089000808555004808900005
:10178000808555000002220090bf9f0000032300c7
:10179000a0bf9f00081090000028a30015003a0089
:1017a0000b00e000130034000b0578008a04780079
:1017b000e20f55000100360029002000c80190000a
:1017c00009017800ee8057005800900003000100e6
:1017d000500498000000e0008c003200680890007f
:1017e00009004000600c9800090555004240a9001e
:1017f000eeff3c00780190000200e0000c00340095
:10180000c80190008c00780058009000030001008f
:10181000500498008080eb000000e0007c00320063
:10182000e80890007800900000804000600c98006c
:10183000880c90000900e0001100340009057800d0
:10184000e28f5400010036002a002000c8019000f9
:101850000a017800ec805700580090000300010056
:10186000500498000000e000680032006808900012
:101870000a004000600c98008a845400edff370095
:10188000180990000200e0000c003400c80190002c
:10189000e8009000580090000300010050049800f8
:1018a0008080eb000000e00059003200e808900062
:1018b0001808900000804000600c9800a80c900070
:1018c0000900e0001100340009057800e28f54009f
:1018d000010036002a002000c80190000a017800ab
:1018e000ec8057005800900003000100500498005d
:1018f0000000e00045003200680890000a00400047
:10190000600c98008a845400edff3700380990007d
:101910000200e0000e003400e8009000180890007b
:1019200080804000c8019000580090000300010032
:10193000500498008080eb000000e000340032008a
:10194000e80890003808900000804000600c980083
:10195000c80c90000900e00011003400090578006f
:10196000e28f5400010036002a002000c8019000d8
:101970000a017800ec805700580090000300010035
:10198000500498000000e000200032006808900039
:101990000a004000600c98008a845400edff370074
:1019a000081090008000eb000028a300180032000f
:1019b0000b00e000160034008b0478000905780065
:1019c000e28f5400010036002a002000c801900078
:1019d0000a017800ee8057005800900003000100d3
:1019e000500498000000e0000800320068089000f1
:1019f0000a004000600c98008a8454004240a9000c
:101a0000eeff3c008000eb00010037008080eb001f
:101a1000010078004f0678004f05be004f04be005d
:101a20000080fa00000006000108780000000600af
:101a3000e0db20009b003700881f7800c89320005f
:101a40001804e00003003a00f9ff070020c0b300cb
:101a5000004c78004f04780000000600889fbe000c
:101a60000004780008007800540007008004780023
:101a700000042000180060000200320028009000de
:101a8000940007000000eb0020049800384090000c
:101a90000004e000050035000000fb0020fb07000b
:101aa0000000e000010032008084eb00181090007c
:101ab0000000e0000800320022fb07000000e00008
:101ac000010032008084eb001810900081000700b4
:101ad0000000eb00101498000008200018006000bf
:101ae000150032000001eb006000b8000388200000
:101af0000202d00063027a00880f520005003a000b
:101b00000000400081804800008041000008eb0098
:101b10000600370061004000e08048000201e80054
:101b2000e80f5000e08f5800f0ff3a0008007800fe
:101b3000680007000e003700000c780000c0eb00c2
:101b40003044980060022000080040002004980003
:101b50004004980050049800400c980060049800dd
:101b6000500c98007004980076004400000c980017
:101b7000090078004f04be0000000600881f7800ae
:101b80000004eb006140b800e2ff2f00f3ff2f00dc
:101b90000f010700e2882000620078000000e000ea
:101ba00001003200adff07000804e800e80f540010
:101bb000f4ff3a004f04780000000600889fbe0042
:101bc000000478000800e0000e003a008004eb00fa
:101bd0008800d00000882000610078000000e0004c
:101be00004003200f5ff07000000e00001003d00a6
:101bf0008084eb000804e800e80f5400f4ff3a008a
:101c00002500370000002200180060008004eb006f
:101c100021003200a80490000f0037000901510094
:101c2000384090000000fb0089007800effa0700c0
:101c30000000e00007003c002800900040049800ed
:101c400060049800500c98001890a0008084eb006d
:101c5000110037008084440048019000828f5400b6
:101c6000eeff3900280090004004980098007800aa
:101c700002c020000281600001003a00380090009c
:101c800001e8a30002003200600498000100370060
:101c9000500c98008004eb00090078004f04be004f
:101ca00000000600010020000100e00008003200f2
:101cb000010080000100e000050032008100e90021
:101cc000010088008100d0000200800000b178008f
:101cd000000006000000e0002f003200c001780084
:101ce000e38f51002c0036000308a3002a003a00bd
:101cf000d14980000100e00002003200810f500055
:101d00000400310011009800d04988001600370007
:101d100082007800110190000200e0000200320011
:101d2000800f5100faff39001102780084824000d0
:101d3000850f500018003900808f520003003a00d0
:101d40008308420001007800070037000200e0002d
:101d50000300320083014000830f51000e00390060
:101d60001200980090009800900090000100e000a0
:101d70000900320010014000828f500006003a0036
:101d8000829320000009eb00100178001108410047
:101d9000910090001100980000000600889fbe008e
:101da00000047800c14980000100e0000200320018
:101db000010078000d003700d1498000a093200079
:101dc00004003700910f5400250036000180e80020
:101dd000910090000100e000faff3a001000370087
:101de000920f54001e0036000280e80010017800b7
:101df0000200e000faff3a0011017800d1498000aa
:101e0000a093200004003700910f54001400360006
:101e10000180e80091009000828f5000faff3a00a4
:101e2000f9498000888f540001003100880478004f
:101e300009007800360007000000e00004003a00c6
:101e4000888f5400050032008904d100f5ff370067
:101e5000091878009fff0700d2ff37000000eb0051
:101e60004f04be0000000600881f78006304400095
:101e70000800a1008000eb00800f54002100360014
:101e8000e30f540001003e004800200008007800e5
:101e9000c2ff07008000eb000000e00019003200e4
:101ea000900078009101780064815100880f510002
:101eb000030031001101900002087800070037008c
:101ec00008814000020878009101900013019800f9
:101ed00010017800110914008808780010017800ba
:101ee0000000eb000200e0000400320092019000cc
:101ef0000300e000010032000280e800c0498800d1
:101f00008180e800010078004f047800000006009e
:101f1000800078000000eb000100e00005003400c4
:101f20000100780010fa0700e10f400001003a00bc
:101f30000000eb000000060000c0da000000060010
:101f400000c0da0000000600839f68000100e00086
:101f500002003d0060001000e08018000300e00077
:101f600002003d0060011100e0811900050007003a
:101f70004f00e00002003b0060001000e08018000d
:101f8000000006006022b800060220000000d00019
:101f90008180d2000482d2008582d2000000a0009d
:101fa0000202520083825a00030031000202420002
:101fb00083824a000000a1000603e900f3ff3a0013
:101fc00000000600efff07000400be00000006004e
:101fd000020ab900001bb9000200b80081004200eb
:101fe0008100430000000600889fbe008a9fbe005b
:101ff00030044200b0844a0030054b0090854b000d
:102000006000b1000898be000a90be000440e100e4
:1020100005c8e10006d0e10007d8e1000200310068
:10202000680040001008e8004f05be004f04be00e5
:1020300000000600889fbe008a9fbe003004be00dc
:102040002005be000418540005985c0006185d00c9
:1020500007985d00110020000440e10005c8e10080
:1020600006d0e10007d8e100010039008000eb0054
:10207000108810004f05be004f04be00000006008f
:102080001200fa00889fbe008a9fbe008c9fbe008f
:10209000e0b79f00f1b79f0082bf9f0093bf9f00f2
:1020a0000605be000404be000000eb00d0b79f0090
:1020b000c0b79f00b0b79f00a0b79f0090b79f0028
:1020c0000006eb005fb19700cfb09700820141009e
:1020d0003fb097000200e00004003d003700070019
:1020e0007e805700c0ff0700030037003300070061
:1020f0007e805700cfff0700dfb697000d00e0009d
:102100000c0035006fb29700ffb297000fbb97002d
:102110009fbb970010002000010020006011b80054
:1021200000027200818272000203730083837300d5
:102130001b0007000c06e80001042000810f560078
:10214000e0ff3a000d00e00004003d000802be0080
:102150000a03be007e805700a3ff07005fa8970018
:102160000000e00005003a001fb29700afb29700f0
:102170003fb39700cfb39700090007006fb09700f7
:10218000ffb097000fb997009fb997004f06be00a8
:102190004f05be004f04be000080fa00000006009c
:1021a0000100070000000600a4b79f00b5b79f001c
:1021b000c6b79f00d7b79f00000006004f09de009a
:1021c00082817100b3b79f004f01de008180400023
:1021d00082807000a1b79f008fb097004f09de008a
:1021e000000040000200700090b79f007fa8970099
:1021f0004f01de00818040008280700081b79f0027
:102200000d0007004f3ade0000004000040070009f
:10221000f0af9f00080007000402420085824a00d8
:1022200006034b0087834b00dfff07000802be0058
:102230000a03be00000006002fb29700bfb297004d
:102240004fb39700dfb3970000000600881f7800a7
:1022500018002000881f780089ff07008f87e90099
:102260004f04780000000600801feb0084ff070089
:102270008f87e90000000600889fbe008a9fbe008d
:10228000e00f5000e08f5800e00f5900e08f590038
:102290000c003d006044b8006055b80000005400d8
:1022a00081805c0002015d0083815d0018002000d8
:1022b0001500070008003d00180007000004eb00af
:1022c000050037000004eb000f00070002003d008e
:1022d0001200070018002000dcff07000800e000e3
:1022e000060032006022b8006033b80000005200df
:1022f00081805a0002015b0083815b004f05be00b4
:102300004f04be0000000600e00f5200e08f5a00ac
:10231000e00f5b00e08f5b00000006006044b80047
:102320006055b8000402540085825c0006035d001d
:1023300087835d0000000600889fbe008a9fbe0064
:102340008c1f7800e00f5000e08f5800e00f59001c
:10235000e08f59000d003d006044b8006055b800a2
:102360000000540081805c0002015d0083815d00fb
:102370001c0020000820e10009a8e1000ab0e100eb
:102380000bb8e1000d003d00080037000006eb002f
:10239000e00f5200e08f5a00e00f5b00e08f5b001f
:1023a00006003d006044b8006055b80004025400c7
:1023b00085825c0006035d0087835d00aaff07003d
:1023c0000c00e000060032006022b8006033b80064
:1023d0000000520081805a0002015b0083815b0093
:1023e0004f0678004f05be004f04be0000000600f7
:020000040000fa
:1023f0000c0a0000413000003a2500006420000073
:10240000413100003a250000642000004132000004
:102410003a250000640000000003000003060000ed
:102420000104000006020000050000000305000092
:020000040000fa
:102430001200fa00000f9800e3004700c2202900b4
:102440000b000900b258780050c3b3000000fb0035
:102450004400dd008040780020c3b3006f4060007e
:1024600000c07000804078000e0890007140980015
:1024700020c3b3000000fb004400dd008040780072
:1024800050c3b3006f40600000c07000804078000f
:102490000e0890006140980020c3b3000000fb00cc
:1024a0004400dd008040780000c3b3006f4060004e
:1024b00000c07000804078000e08900051409800e5
:1024c00010c3b3000000fb004400dd008040780032
:1024d00010c3b3006f40600000c0700080407800ff
:1024e0000e0890003140980010c3b3000000fb00bc
:1024f0004400dd008040780080c3b3006f4060007e
:1025000000c07000804078000e08900011409800d4
:10251000f0c4b3000000fb00a1042000810f5000b4
:102520001e003200a1042000810f50000a003c0070
:1025300041042000810f500061003200610420003e
:10254000810f50003200320011042000810f500032
:10255000420032005d003700e1042000810f50008e
:1025600054003200e1042000810f500004003c00c0
:10257000d1042000810f50002800320053003700a2
:10258000f1042000810f5000470032003105200087
:10259000810f5000410032004c00370030c6b300bc
:1025a0000000fb0011062000810f500004003200e3
:1025b00051072000810f5000040032004300370013
:1025c00010c0b300104798001000370040c7b30098
:1025d0000000fb00c1062000810f50000700320000
:1025e000e1062000810f5000010032000600370094
:1025f00060c0b300104798000300370070c0b300fc
:102600001047980000000000000000002f00370075
:1026100020c0b300104798002c00370040c7b3001b
:102620000000fb0021072000810f50000400320051
:1026300091072000810f5000040032002300370072
:1026400030c0b300104798000300370050c0b300fb
:1026500010479800000000001c00370030c6b3008f
:102660000000fb0001072000810f50000400320031
:1026700051072000810f5000040032001300370082
:1026800040c0b300104798000300370080c0b3007b
:1026900010479800000000000c00370090c0b30005
:1026a000104798000900370000c1b3001047980098
:1026b0000600370010c1b300104798000300370030
:1026c00020c1b30010479800000000000e089000e1
:1026d0009e4090002140980060c0b300004f7800f9
:1026e0000e089000104090000080fb004400de00c7
:1026f000004078006a00b90000007800804078004f
:102700000e089000104090006f40600000c0400034
:10271000204798002e4090000080fb004200de0021
:10272000804078002e40900000c040001e4f4000c6
:102730002e409000634060000004e00004003a0076
:102740001e409000e24f500001003e001e4fe90085
:102750001e4090000080fb000000e90000004700e0
:10276000304090001e4f40000e0890003040900016
:102770000080fb004400de00004078006a00b900e1
:1027800000007800804078000e08900030409000f3
:102790006f40600000c040001e4f40009e80fb0064
:1027a0007000200000017800110009008280d8002c
:1027b0008000fd00004f78000e0890009e407800d9
:1027c000414098000e089000104078000004a200dc
:1027d0000004e000230032000e089000104090003a
:1027e000e00007008e089000904098000e089000ce
:1027f00020409000db0007008e089000a040980069
:102800000e08900030409000d60007008e0890001f
:10281000b04098000e08900040409000d1000700a2
:102820008e089000c04098000e0890005040900024
:10283000cc0007008e089000d04098000e08900051
:1028400060409000c70007008e089000e0409800ac
:102850000e08900070409000c20007008e089000a3
:10286000f04098000080fa00000006000200fa0024
:10287000000f78001e007800104078000004e0008f
:10288000240032001e00780010409000b5000700c0
:1028900011932000804878001e00780020409000ae
:1028a000b000070021932000804878001e007800c7
:1028b00030409000ab000700319320008048780042
:1028c0001e00780040409000a600070041932000c1
:1028d000804878001e00780050409000a10007005a
:1028e00051932000804878001e00780060409000de
:1028f0009c00070061932000804878001e0078004b
:102900007040900097000700719320008048780085
:102910001c0037001e007800c0409000409320004b
:10292000014878001e007800b040900030932000ed
:10293000014878001e007800a040900020932000fd
:10294000014878001e00780090409000109320000d
:10295000014878001e007800d0409000509320007d
:10296000014878001e007800e0409000609320004d
:10297000014878001e007800f0409000709320001d
:1029800001487800009320008040eb000148780067
:1029900000000000823e200003002000405e210075
:1029a000b70407000004a2000004e000f9ff3a00a9
:1029b0000080fa00000006000a00fa0040079800b4
:1029c0000468ef000093200010407800004f78006a
:1029d000409320001040780040479800309320003a
:1029e0001040780030479800209320001040780075
:1029f000204798001093200010407800104798005e
:102a000050932000104078005047980060932000b9
:102a100010407800604798007093200010407800c4
:102a20007047980004c8bf000004e000e4ff3a00cb
:102a30004e009000104078000004e0001d003200bd
:102a40001e40900032000700ce0090009040980099
:102a50002e4090002e000700ce009000a04098006d
:102a60003e4090002a000700ce009000b040980041
:102a70004e40900026000700ce009000c040980015
:102a80005e40900022000700ce009000d0409800e9
:102a90006e4090001e000700ce009000e0409800bd
:102aa0007e4090001a000700ce009000f040980091
:102ab000150037009e4090004e0090001140980095
:102ac000ae4090004e00900021409800be40900023
:102ad0004e00900031409800ce4090004e00900093
:102ae00041409800de4090004e0090005140980018
:102af000ee4090004e00900061409800fe40900033
:102b00004e009000714098000080fa00000006001e
:102b10000200fa00004f78009e80fb00d0cc2c0011
:102b20000008b8004308de00004078000080fb0089
:102b30004400dd00804178001e81fb00d0cc2c00d9
:102b40000010b8004308de006a00b90000007800f9
:102b5000000051000040780000c071000080fa00c1
:102b6000000006000200fa00004f78001e80fb0003
:102b70004400de00004078006a00b90000007800e0
:102b8000804078001e4178006f40610000c0400026
:102b90000080fa00000006000200fa00000f780032
:102ba0001e00780031ff07000080fa0000000600d8
:102bb0000200fa00000f78001e0078007eff070078
:102bc0000080fa00000006000000fa0010c0b30008
:102bd00004e8b7007093200090407800a0c3b300d1
:102be00080cf500006003e00709320001040780017
:102bf0008040e8007093200001487800770037009b
:102c0000709320008040eb00014878006093200022
:102c100090407800a0c3b30080cf500006003e0073
:102c200060932000104078008040e800609320000e
:102c30000148780069003700609320008040eb0075
:102c4000014878005093200010407800f64f500063
:102c500006003e0050932000104078008040e800bd
:102c600050932000014878005c003700509320000a
:102c70008040eb000148780040932000104078002d
:102c80008040e800409320000148780040932000f5
:102c900010407800e74f500003003a0040932000b6
:102ca0008040eb000148780020932000104078001d
:102cb0000080fb00eb0f500022003e0011002000be
:102cc0000008dd0001a52000810060000100e00097
:102cd00012003a00640060000000e00019003200b9
:102ce0003093200010407800fc4f50001f003e0041
:102cf0001093200010407800634060000004e00062
:102d00001c003a0030932000104078008040e8001a
:102d100030932000014878003000370030932000c5
:102d200010407800fd4f500014003e00309320000a
:102d3000104078008040e80030932000014878007f
:102d4000260037003093200010407800fe4f5000de
:102d50000c003e0030932000104078008040e800d6
:102d600030932000014878001c003700000000006c
:102d700005003700000000000300370000000000dd
:102d800001003700000000003093200011c0b300a4
:102d9000014878002093200010407800eb4f50004d
:102da00006003e0020932000104078008040e8009c
:102db000209320000148780008003700209320006d
:102dc00011c0b30001487800109320001040780033
:102dd0008040e80010932000014878000080fa004d
:102de000000006000200fa00000f78001e007800c4
:102df000e40f500018003200e40f500007003e00be
:102e0000e20f500010003200e20f500010003e00b0
:102e1000e10f50000a00320019003700e60f5000a1
:102e200011003200e60f50000d003900e70f50008e
:102e30000f003200e80f50000f0032001000370082
:102e4000c402a8000e003700c422a8000c003700fe
:102e5000c442a8000a003700c462a8000800370076
:102e6000c482a80006003700c4a2a80004003700ee
:102e7000c4c2a80002003700c4e2a800000000009d
:102e80000080fa00000006000200fa00000f78003f
:102e90001e007800e40f500018003200e40f5000cc
:102ea00007003e00e20f500010003200e20f500019
:102eb00010003e00e10f50000a00320019003700f8
:102ec000e60f500011003200e60f50000d003900ef
:102ed000e70f50000f003200e80f50000f003200e3
:102ee00010003700c402a9000e003700c422a90058
:102ef0000c003700c442a9000a003700c462a900d0
:102f000008003700c482a90006003700c4a2a90047
:102f100004003700c4c2a90002003700c4e2a900bf
:102f2000000000000080fa00000006000200fa0025
:102f3000000f78001e007800e40f50003b003200c4
:102f4000e40f500007003e00e20f50001b0032006b
:102f5000e20f500027003e00e10f50000a0032004f
:102f600078003700e60f50004c003200e60f5000aa
:102f70003c003900e70f500056003200e80f5000c7
:102f8000620032006f003700201680000040780099
:102f9000614060000004a200614060000080fb000e
:102fa0006100600022168000e1ff2f0081006100b7
:102fb0000100700020168800620037002016800093
:102fc0000000d100614060000004a2006140600088
:102fd0000080fb00610060000000400022168000bd
:102fe000d1ff2f00810061000100700020168800d1
:102ff00054003700201680004200de00614060006f
:103000000004a200614060000080fb0061006000dd
:103010004200dd0022168000b1ff2f008100610018
:10302000010070002016880046003700201680003e
:103030004300de00614060000004a20061406000c7
:103040000080fb00610060004300dd00221680006c
:1030500071ff2f00810061000100700020168800c0
:1030600038003700201680004400de006140600018
:103070000004a200614060000080fb00610060006d
:103080004400dd0022168000f1fe2f008100610067
:1030900001007000201688002a00370020168000ea
:1030a0004500de00614060000004a2006140600055
:1030b0000080fb00610060004500dd0022168000fa
:1030c000f1fd2f00810061000100700020168800d2
:1030d0001c003700201680004600de0061406000c2
:1030e0000004a200614060000080fb0061006000fd
:1030f0004600dd0022168000f1fb2f0081006100f8
:1031000001007000201688000e0037002016800095
:103110004700de00614060000004a20061406000e2
:103120000080fb00610060004700dd002216800087
:10313000f1f72f0081006100010070002016880067
:10314000000000000080fa00000006000200fa0003
:10315000000f78001e007800e40f50002a003200b3
:10316000e40f500007003e00e20f5000160032004e
:10317000e20f50001c003e00e10f50000a00320038
:103180004c003700e60f50002f003200e60f5000d1
:1031900025003900e70f500034003200e80f5000de
:1031a0003b003200430037002016800061006000c1
:1031b00000f0a7000000ea000000ea004f00de0077
:1031c000004078003c00370020168000620060005c
:1031d00000f0a7000000ea000000ea004f00de0057
:1031e0000040780034003700201680006400600042
:1031f00000f0a7000000ea000000ea004f00de0037
:10320000004078002c003700201680006800600025
:1032100000f0a7000000ea000000ea004f00de0016
:103220000040780024003700201680007000600005
:1032300000f0a7000000ea000000ea004f00de00f6
:10324000004078001c00370021168000000220009a
:103250000080600000f0a7000000ea000000ea0023
:103260004f00de0000407800130037002116800078
:10327000000420000080600000f0a7000000ea00c9
:103280000000ea004f00de00004078000a0037002e
:1032900021168000000820000080600000f0a700d8
:1032a0000000ea000000ea004f00de000040780065
:1032b000010037000040eb000080fa00000006002b
:1032c0000200fa00000f78001e007800e40f5000a2
:1032d00018003200e40f500007003e00e20f5000db
:1032e00010003200e20f500010003e00e10f5000cd
:1032f0000a00320019003700e60f500011003200ba
:10330000e60f50000d003900e70f50000f003200ab
:10331000e80f50000f00320010003700c002a90073
:103320000e003700c022a9000c003700c042a900df
:103330000a003700c062a90008003700c082a90057
:1033400006003700c0a2a90004003700c0c2a900cf
:1033500002003700c0e2a900000000000080fa006f
:10336000000006000000fa00e116800000f02f00c7
:1033700000806000e0168800c116800000f02f0079
:1033800000806000c0168800d6a2a900cbe2a90088
:10339000d682a900c7e2a900d2a2a900d282a900c0
:1033a000d682a800107c280021002000d70007004a
:1033b000e106200080c3b30007010700e1062000fa
:1033c000c0c0b30004010700e106200060c0b300e4
:1033d000010107006200070010c0b3000080fa007e
:1033e000000006000400fa00000f780011079800a2
:1033f0000a0037001e007800104078000000fb0033
:103400000000e000110032001e007800104078003b
:103410001e0fe80010000700000000001e009000d2
:1034200000f0a7000000ea000000ea004f00de0004
:10343000004078009e0090008100e900110798008c
:103440000004e000ebff3a0001003700000000003c
:103450000080fa00000006000200fa00004f780029
:103460001e00fb00ea0f50000e003200ea0f500071
:1034700003003c00e80f5000150032001b0037002d
:10348000ec0f500017003200ed0f500017003a000b
:1034900002c8bf00ea4f50002b0032003b0007007b
:1034a0002a00370002c8bf00ed4f50000100320073
:1034b0003600070000c8bf000004e00002003a0028
:1034c00087000700210037007a0007001f0037003f
:1034d0003c00070000c2b300dfff0700390007000f
:1034e0001a0037001e0007001800370001c8bf008f
:1034f000f04f50000e003a000168ef0000c8bf0016
:103500000004e00006003a00e106200000ccb30011
:10351000b100070010c0b30000e8b7000400370096
:10352000e106200000c8b300ab0007000068ef0010
:103530001e4078009100070001c8bf000040e8006d
:1035400001e8b70001003700000000001e417800cc
:1035500021802000824878000080fa0000000600e8
:103560000000fa00411b210010c0b3009a000700c0
:10357000411b210020c0b300970007000068ef0046
:103580000168ef000080fa00000006000000fa0069
:1035900000c8bf000004e00004003a00e10620007b
:1035a00000c8b3008c00070003003700e1062000cc
:1035b00000ccb300880007000168ef000080fa002b
:1035c000000006000200fa0001c8bf000004e0008d
:1035d00016003a0000c8bf000004e00006003a00f0
:1035e000e106200000ccb3007b00070010c0b30050
:1035f00000e8b70004003700e106200000c8b3006f
:10360000750007000068ef000040eb00004f7800f5
:10361000020037000d0007001e4fe8001e40780032
:10362000ee4f5000fbff36000600370001c8bf0018
:103630000040e90001e8b700e106200000c1b30046
:10364000650007000080fa00000006000000fa0094
:10365000e106200040c1b3005f00070001c8bf00c1
:103660000040e80001e8b70001c8bf00f04f50007b
:103670000e003a000168ef0000c8bf000004e0003f
:1036800006003a00e106200000ccb300520007001b
:1036900010c0b30000e8b70004003700e1062000c6
:1036a00000c8b3004c0007000068ef000080fa007b
:1036b000000006000200fa000040eb00004f780016
:1036c00002003700bfff07001e4fe8001e407800d1
:1036d000ef4f5000fbff36000080fa0000000600ac
:1036e0000200fa000040eb00004f780002003700b3
:1036f000d6ff07001e4fe8001e407800ef4f500035
:10370000fbff36000080fa00000006000400fa000b
:10371000008fbe0005003700000000000081eb00b4
:103720008081eb001e0f41005e9749001e00be0025
:10373000e00f5000e08f5800f7ff3a000080fa00d9
:10374000000006000200fa00004f78001e407800da
:103750000004e00004003200e1062000f0c0b300e5
:103760001d00070003003700e1062000c0c0b300c1
:10377000190007000080fa00000006000200fa00ad
:10378000004f7800d6a2a900cbe2a800e116800085
:1037900000f02f0000806000e01688009e00fb0013
:1037a000e016800001007000e0168800d682a800b4
:1037b000000000000000000000000000d682a90008
:1037c000cbe2a900e006200001002000cfff0700a7
:1037d0000080fa00000006000400fa00004f7800a4
:1037e00011079800e116800000f02f0000806000b3
:1037f000e01688009e00fb00e016800001007000cb
:10380000e0168800d6a2a900cbe2a900d682a800c3
:10381000000000000000000000000000d682a900a7
:10382000d682a9001e0090008000eb00b7ff0700c1
:103830000080fa00000006000200fa00000f780085
:103840001e0078000000e00002003a0004000700bb
:103850002800070010c0b3000080fa000000060036
:103860000000fa0021a3a90001198000f0cf2f0069
:10387000008060000019880001198000000e2000ff
:10388000010070000019880021e3a8002043a8006f
:103890002023a8001119800000002e0001007000f4
:1038a000101988002343a8002063a9001119800083
:1038b00030fc2f00008060000020a000101988005c
:1038c0002223a9002203a90021198000f00f2e0055
:1038d000008060000080a0002019880025e3a80077
:1038e0002463ef002143a80010c0b3000080fa0059
:1038f000000006000000fa0061a3a900011b80007f
:10390000f0cf2f0000806000001b8800011b8000aa
:10391000000e200001007000001b880061e3a80079
:103920006043a8006023a800111b800000002e0047
:1039300001007000101b88006343a8006063a900a9
:10394000111b800030fc2f00008060000020a000d0
:10395000101b88006223a9006203a900211b8000bc
:10396000f00f2e00008060000080a000201b880067
:1039700065e3a8006463ef006143a80010c0b300d2
:103980000080fa00000006000800fa0020079800f6
:103990003107980021e3a9002143a80011198000f4
:1039a000f0cf2f00008060001019880021a3a9002b
:1039b00001198000f0cf2f000080600000198800fe
:1039c00001198000000e200001007000001988001d
:1039d0002043a8002023a8001119800000002e0019
:1039e00001007000101988002343a8002063a9007b
:1039f0002223a9002203a90021198000f00f2e0024
:103a0000008060002019880025e3a90070c0b30081
:103a100024e3b7003e009000004078000040e90039
:103a20006f4060000080fb006f0060004200dd001e
:103a30001219800031fc2f0081006100010070002c
:103a4000101988000040eb00004f78000000eb00e8
:103a5000100798000040eb00004f78000900370085
:103a60001e80fb0000004000ae009000008040007f
:103a7000100078009e009000008040001007980021
:103a80001e4fe8009e80fb003e009000808f50009b
:103a9000f3ff39009e009000811988002e23ef006b
:103aa0002183a9009119800080ff2f000080600011
:103ab0000010a0009019880085a0a90095a0a90079
:103ac00021e3a80010c0b3000080fa000000060047
:103ad0000200fa00000f7800011c8000f0fc2f00ab
:103ae00000806000001c8800011c8000c0ff2f00c7
:103af000008060000010a000001c88000030200042
:103b0000401c88001e00e900501c8800d0002000e6
:103b1000101c88008480a9009480a80081e3a8007c
:103b20000080fa00000006000200fa00000f780092
:103b30001e0078000000e0000700320000002800ae
:103b40009e007800808f500003003e002e23ef007f
:103b50009e007800811988000080fa0000000600ad
:103b60000200fa00000f78001e0078000000e0005c
:103b700006003200000028009e007800808f500070
:103b800002003e009e007800811b88000080fa0041
:103b9000000006000000fa002023a800000000003a
:103ba0000000000000000000000000000000000015
:103bb0002023a90000000000000000000000000019
:103bc0000000000000000000001880000080fa00e3
:103bd000000006000000fa006023a80000000000ba
:103be00000000000000000000000000000000000d5
:103bf0006023a90000000000000000000000000099
:103c00000000000000000000001a80000080fa00a0
:103c1000000006000400fa00100798000040eb00c6
:103c2000004f7800110037001e80fb006a00b900c9
:103c3000800078000089200000804000900078001b
:103c40001e009000808f500007003a001e80fb008d
:103c50006a00b900800078000089200000804000e0
:103c60008000eb00010878001e4fe8001e4078003d
:103c7000e94f5000ecff36000080fa00000006001b
:103c80000800fa00100798002207980033079800f0
:103c900006c8bf000004a2000004e00002003200d9
:103ca0000040eb00280037000040eb00004f780098
:103cb000210037001e80fb006a00b90080007800f8
:103cc0000089200000804000100078000000e00023
:103cd00018003a001e80fb006a00b90080007800de
:103ce00000892000008040009e00900001087800bc
:103cf0001e80fb006a00b900800078002089200047
:103d0000008040002e019000be0190000288be009d
:103d10001e80fb006a00b9008000780060892000e6
:103d2000008140006000b8000089be0010c0b300f0
:103d3000050037001e4fe8001e407800e94f500094
:103d4000dcff36000040eb000080fa0000000600b7
:103d50000200fa00000f78001e0078000000e0006a
:103d600003003200e10f5000150032001800370048
:103d7000420620008000eb0000892000a6f2070028
:103d80004105800080ff2f00008060000000a0003f
:103d9000400588008500a9000a21ef008016200058
:103da0007008880000002a00900888009500a8008c
:103db00010c0b30006e8b70010c0b300050037001c
:103dc0009500a9000668ef0010c0b300010037009d
:0c3dd0000040eb000080fa00000006003c
:020000040000fa
:103ddc000008000004000000000000003009000092
:103dec0008000000000000000408000002000000b1
:103dfc0000000000fc7f0000040000000000000038
:103e0c00900800006400000000000000060800009c
:103e1c000200000000000000160900001a0000005b
:103e2c0002000000686a6c00747a4c00000001000b
:103e3c000002000004000800001000000000200038
:103e4c002b2d230030000000080800008800000023
:103e5c000200000001000000002e08002f082e00b8
:103e6c00082e08002e082e00081e08000000000076
:103e7c000000000000000000000000000000000036
:103e8c0000000000000000000002080001015600c4
:103e9c0008570800560856000856080056084600f1
:103eac0008000000000000000000000000000000fe
:103ebc0000000000000000000000000000000200f4
:103ecc00080202007e087f00087e08007e087e0043
:103edc00087e08006e0800000000000000000000d2
:103eec0000000000000000000000000000000000c6
:103efc00000000000808300008580800000000000e
:103f0c00000000000000000000000000f4080000a9
:103f1c002200000002000000303132003334350042
:103f2c0036373800394142004344450046003000e2
:103f3c003132330034353600373839006162630072
:103f4c0064656600000000003c09000002000000ef
:103f5c00000000003e09000002000000020000000a
:103f6c0004000000380900000400000000000000fc
:103f7c0040090000020000000000000000000000ea
:020000040000fa
:103f8c000200fa00000f78001e007800e20f5000cb
:103f9c0013003200e20f500003003e00e10f50000e
:103fac000600320029003700e30f500015003200e4
:103fbc00e40f50001c00320024003700a1168000d2
:103fcc00000420000080600000f0a7000000ea0060
:103fdc000000e9004f00de00004078001c003700b4
:103fec00a1168000000820000080600000f0a700ef
:103ffc000000ea000000e9004f00de0000407800fd
:10400c0013003700111680000008200000806000ab
:10401c0000f0a7000000ea000000e9004f00de00fd
:10402c00004078000a003700a11680000000220032
:10403c000080600000f0a7000000ea000000e9002a
:10404c004f00de0000407800010037000040eb001c
:10405c000080fa00000006000200fa00000f780051
:10406c001e007800e20f50000c003200e20f5000ee
:10407c0003003e00e10f5000060032000d00370037
:10408c00e30f500007003200e40f5000070032002d
:10409c0008003700d2c2a80006003700d2e2a80000
:1040ac0004003700c0e2a80002003700d3a2a80029
:1040bc00000000000080fa00000006000000fa007a
:1040cc00103a80004c00de00674060000080fb006e
:1040dc0061006000004078000004e0001d00320028
:1040ec00103a80004c00de00674060000080fb004e
:1040fc00640060000000e00016003a000001eb00d4
:10410c0080072000a109200033742000804978002a
:10411c008149780082497800120020006004200058
:10412c0071052000237420008049780081497800b3
:10413c008249780000000000000000000000000030
:10414c00113a800000002700008060000000e000b1
:10415c00fbff3a0020022000303a88004427ef0091
:10416c003200200080072000a109200033742000b9
:10417c00804978008149780082497800120020003b
:10418c006004200071052000237420008049780011
:10419c0081497800824978002c23ef006c23ef00d2
:1041ac0000000000113a80000000270080806000b1
:1041bc0000002300808f5000faff3a00000000003e
:1041cc00113a800000022000008060000000e00036
:1041dc00fbff32000080eb00100888000080fa0022
:1041ec00000006000400fa00100798001e00900062
:1041fc00e10f50000b003a001e0090001000070069
:10420c00d1cc2c000100b8004308de00004f780030
:10421c0040c6b3009e40780080cf500003003e00a3
:10422c000400370000c0eb000300370040c6b300a9
:10423c00004f78001e4078000080fa000000060055
:10424c000200fa00000f78009e00780041198800e7
:10425c002023a8000000000000198000620060000c
:10426c000000e000fcff3a002023a9000000000041
:10427c000000000000000000000000000000000032
:10428c000000000000198000610060000000e000e8
:10429c00fcff3200001880000080fa0000000600cd
:1042ac000200fa00000f78001e007800e10f5000a9
:1042bc0003003a002c23a90010c0b3000100370002
:1042cc000040eb000080fa00000006000c00fa0031
:1042dc000000eb009bfe07005200200003002000b2
:1042ec00201c220063fe070074ff07001afc070065
:1042fc000000eb004dfd07000002200015fe07003a
:10430c001000200040079800800020005007980003
:10431c0020002000000f7800c07f2000201c8800a7
:10432c00680047009e00780094fd07001e0078008e
:10433c00e4fd0700e1ff830011079800f1ff830003
:10434c0021079800011a800031079800be009000e8
:10435c00811f7800ae009000811f78009e009000b5
:10436c00811f7800801f2900801f78003cf1070016
:10437c00e8875700efff37000000fa000080fa00d2
:04438c000000060027
:020000040000fa
:0200000401f009
:04000c00fbff0000f6
:020000040000fa
:0200000401f009
:040010007dff000070
:020000040000fa
:0200000401f009
:040014007fff00006a
:020000040000fa
:0200000401f009
:04001800feff0000e7
:00000001FF
